{
  "contractName": "FundRaising",
  "abi": [
    {
      "inputs": [
        {
          "internalType": "uint256",
          "name": "_totalFundReq",
          "type": "uint256"
        },
        {
          "internalType": "uint256",
          "name": "_endTime",
          "type": "uint256"
        }
      ],
      "stateMutability": "nonpayable",
      "type": "constructor"
    },
    {
      "inputs": [
        {
          "internalType": "address",
          "name": "",
          "type": "address"
        }
      ],
      "name": "donors",
      "outputs": [
        {
          "internalType": "uint256",
          "name": "",
          "type": "uint256"
        }
      ],
      "stateMutability": "view",
      "type": "function"
    },
    {
      "inputs": [],
      "name": "endTime",
      "outputs": [
        {
          "internalType": "uint256",
          "name": "",
          "type": "uint256"
        }
      ],
      "stateMutability": "view",
      "type": "function"
    },
    {
      "inputs": [],
      "name": "owner",
      "outputs": [
        {
          "internalType": "address payable",
          "name": "",
          "type": "address"
        }
      ],
      "stateMutability": "view",
      "type": "function"
    },
    {
      "inputs": [],
      "name": "totalDonor",
      "outputs": [
        {
          "internalType": "uint256",
          "name": "",
          "type": "uint256"
        }
      ],
      "stateMutability": "view",
      "type": "function"
    },
    {
      "inputs": [],
      "name": "totalFundRaised",
      "outputs": [
        {
          "internalType": "uint256",
          "name": "",
          "type": "uint256"
        }
      ],
      "stateMutability": "view",
      "type": "function"
    },
    {
      "inputs": [],
      "name": "totalFundReq",
      "outputs": [
        {
          "internalType": "uint256",
          "name": "",
          "type": "uint256"
        }
      ],
      "stateMutability": "view",
      "type": "function"
    },
    {
      "inputs": [],
      "name": "totalVote",
      "outputs": [
        {
          "internalType": "uint256",
          "name": "",
          "type": "uint256"
        }
      ],
      "stateMutability": "view",
      "type": "function"
    },
    {
      "inputs": [
        {
          "internalType": "address",
          "name": "",
          "type": "address"
        }
      ],
      "name": "voted",
      "outputs": [
        {
          "internalType": "bool",
          "name": "",
          "type": "bool"
        }
      ],
      "stateMutability": "view",
      "type": "function"
    },
    {
      "inputs": [],
      "name": "votingEndTime",
      "outputs": [
        {
          "internalType": "uint256",
          "name": "",
          "type": "uint256"
        }
      ],
      "stateMutability": "view",
      "type": "function"
    },
    {
      "inputs": [],
      "name": "votingStatus",
      "outputs": [
        {
          "internalType": "bool",
          "name": "",
          "type": "bool"
        }
      ],
      "stateMutability": "view",
      "type": "function"
    },
    {
      "inputs": [],
      "name": "sendFund",
      "outputs": [],
      "stateMutability": "payable",
      "type": "function"
    },
    {
      "inputs": [],
      "name": "getContractBalance",
      "outputs": [
        {
          "internalType": "uint256",
          "name": "",
          "type": "uint256"
        }
      ],
      "stateMutability": "view",
      "type": "function"
    },
    {
      "inputs": [
        {
          "internalType": "uint256",
          "name": "_votingEndTime",
          "type": "uint256"
        }
      ],
      "name": "startVoting",
      "outputs": [],
      "stateMutability": "nonpayable",
      "type": "function"
    },
    {
      "inputs": [],
      "name": "putVote",
      "outputs": [],
      "stateMutability": "nonpayable",
      "type": "function"
    },
    {
      "inputs": [],
      "name": "claimFund",
      "outputs": [],
      "stateMutability": "nonpayable",
      "type": "function"
    }
  ],
  "bytecode": "0x608060405260016008553480156200001657600080fd5b506040516200173a3803806200173a83398181016040528101906200003c9190620000df565b336000806101000a81548173ffffffffffffffffffffffffffffffffffffffff021916908373ffffffffffffffffffffffffffffffffffffffff16021790555080426200008a919062000155565b60078190555081600181905550505062000190565b600080fd5b6000819050919050565b620000b981620000a4565b8114620000c557600080fd5b50565b600081519050620000d981620000ae565b92915050565b60008060408385031215620000f957620000f86200009f565b5b60006200010985828601620000c8565b92505060206200011c85828601620000c8565b9150509250929050565b7f4e487b7100000000000000000000000000000000000000000000000000000000600052601160045260246000fd5b60006200016282620000a4565b91506200016f83620000a4565b92508282019050808211156200018a576200018962000126565b5b92915050565b61159a80620001a06000396000f3fe6080604052600436106100e85760003560e01c80638da5cb5b1161008a578063ca0cdea811610059578063ca0cdea8146102ae578063dd0cf15d146102eb578063e4fbe65e146102f5578063f1cea4c714610320576100e8565b80638da5cb5b146102045780639030e40f1461022f578063aec2ccae1461025a578063b335e03014610297576100e8565b80633ac0e77b116100c65780633ac0e77b1461016e5780633d2f5bda146101995780635072b084146101c25780636f9fb98a146101d9576100e8565b806319f41a40146100ed5780631ea736e0146101185780633197cbb614610143575b600080fd5b3480156100f957600080fd5b5061010261034b565b60405161010f9190610c46565b60405180910390f35b34801561012457600080fd5b5061012d61035e565b60405161013a9190610c7a565b60405180910390f35b34801561014f57600080fd5b50610158610364565b6040516101659190610c7a565b60405180910390f35b34801561017a57600080fd5b5061018361036a565b6040516101909190610c7a565b60405180910390f35b3480156101a557600080fd5b506101c060048036038101906101bb9190610cc6565b610370565b005b3480156101ce57600080fd5b506101d7610472565b005b3480156101e557600080fd5b506101ee61077b565b6040516101fb9190610c7a565b60405180910390f35b34801561021057600080fd5b50610219610783565b6040516102269190610d34565b60405180910390f35b34801561023b57600080fd5b506102446107a7565b6040516102519190610c7a565b60405180910390f35b34801561026657600080fd5b50610281600480360381019061027c9190610d8d565b6107ad565b60405161028e9190610c46565b60405180910390f35b3480156102a357600080fd5b506102ac6107cd565b005b3480156102ba57600080fd5b506102d560048036038101906102d09190610d8d565b6109ee565b6040516102e29190610c7a565b60405180910390f35b6102f3610a06565b005b34801561030157600080fd5b5061030a610c1f565b6040516103179190610c7a565b60405180910390f35b34801561032c57600080fd5b50610335610c25565b6040516103429190610c7a565b60405180910390f35b600960019054906101000a900460ff1681565b60055481565b60075481565b60035481565b60008054906101000a900473ffffffffffffffffffffffffffffffffffffffff1673ffffffffffffffffffffffffffffffffffffffff163373ffffffffffffffffffffffffffffffffffffffff16146103fe576040517f08c379a00000000000000000000000000000000000000000000000000000000081526004016103f590610e17565b60405180910390fd5b6007544211610442576040517f08c379a000000000000000000000000000000000000000000000000000000000815260040161043990610e83565b60405180910390fd5b804261044e9190610ed2565b6005819055506001600960016101000a81548160ff02191690831515021790555050565b60001515600960009054906101000a900460ff161515146104c8576040517f08c379a00000000000000000000000000000000000000000000000000000000081526004016104bf90610f52565b60405180910390fd5b60008054906101000a900473ffffffffffffffffffffffffffffffffffffffff1673ffffffffffffffffffffffffffffffffffffffff163373ffffffffffffffffffffffffffffffffffffffff1614610556576040517f08c379a000000000000000000000000000000000000000000000000000000000815260040161054d90610fe4565b60405180910390fd5b600754421161059a576040517f08c379a000000000000000000000000000000000000000000000000000000000815260040161059190611050565b60405180910390fd5b600160085403610650576000600a6002546105b5919061109f565b9050806002546105c591906110d0565b600681905550600860008154809291906105de90611104565b919050555060008054906101000a900473ffffffffffffffffffffffffffffffffffffffff1673ffffffffffffffffffffffffffffffffffffffff166108fc829081150290604051600060405180830381858888f19350505050158015610649573d6000803e3d6000fd5b5050610779565b6005544211610694576040517f08c379a000000000000000000000000000000000000000000000000000000000815260040161068b90611198565b60405180910390fd5b60026003546106a3919061109f565b600454116106e6576040517f08c379a00000000000000000000000000000000000000000000000000000000081526004016106dd90611204565b60405180910390fd5b6001600960006101000a81548160ff02191690831515021790555060006006549050600060068190555060008054906101000a900473ffffffffffffffffffffffffffffffffffffffff1673ffffffffffffffffffffffffffffffffffffffff166108fc829081150290604051600060405180830381858888f19350505050158015610776573d6000803e3d6000fd5b50505b565b600047905090565b60008054906101000a900473ffffffffffffffffffffffffffffffffffffffff1681565b60025481565b600b6020528060005260406000206000915054906101000a900460ff1681565b60011515600960019054906101000a900460ff16151514610823576040517f08c379a000000000000000000000000000000000000000000000000000000000815260040161081a90611270565b60405180910390fd5b6005544210610867576040517f08c379a000000000000000000000000000000000000000000000000000000000815260040161085e906112dc565b60405180910390fd5b6000600a60003373ffffffffffffffffffffffffffffffffffffffff1673ffffffffffffffffffffffffffffffffffffffff16815260200190815260200160002054036108e9576040517f08c379a00000000000000000000000000000000000000000000000000000000081526004016108e09061136e565b60405180910390fd5b60001515600b60003373ffffffffffffffffffffffffffffffffffffffff1673ffffffffffffffffffffffffffffffffffffffff16815260200190815260200160002060009054906101000a900460ff1615151461097c576040517f08c379a0000000000000000000000000000000000000000000000000000000008152600401610973906113da565b60405180910390fd5b6004600081548092919061098f90611104565b91905055506001600b60003373ffffffffffffffffffffffffffffffffffffffff1673ffffffffffffffffffffffffffffffffffffffff16815260200190815260200160002060006101000a81548160ff021916908315150217905550565b600a6020528060005260406000206000915090505481565b6007544210610a4a576040517f08c379a0000000000000000000000000000000000000000000000000000000008152600401610a4190611446565b60405180910390fd5b60008054906101000a900473ffffffffffffffffffffffffffffffffffffffff1673ffffffffffffffffffffffffffffffffffffffff163373ffffffffffffffffffffffffffffffffffffffff1603610ad8576040517f08c379a0000000000000000000000000000000000000000000000000000000008152600401610acf906114d8565b60405180910390fd5b60003411610b1b576040517f08c379a0000000000000000000000000000000000000000000000000000000008152600401610b1290611544565b60405180910390fd5b6000600a60003373ffffffffffffffffffffffffffffffffffffffff1673ffffffffffffffffffffffffffffffffffffffff1681526020019081526020016000205403610b7b5760036000815480929190610b7590611104565b91905055505b34600a60003373ffffffffffffffffffffffffffffffffffffffff1673ffffffffffffffffffffffffffffffffffffffff16815260200190815260200160002054610bc69190610ed2565b600a60003373ffffffffffffffffffffffffffffffffffffffff1673ffffffffffffffffffffffffffffffffffffffff1681526020019081526020016000208190555034600254610c179190610ed2565b600281905550565b60015481565b60045481565b60008115159050919050565b610c4081610c2b565b82525050565b6000602082019050610c5b6000830184610c37565b92915050565b6000819050919050565b610c7481610c61565b82525050565b6000602082019050610c8f6000830184610c6b565b92915050565b600080fd5b610ca381610c61565b8114610cae57600080fd5b50565b600081359050610cc081610c9a565b92915050565b600060208284031215610cdc57610cdb610c95565b5b6000610cea84828501610cb1565b91505092915050565b600073ffffffffffffffffffffffffffffffffffffffff82169050919050565b6000610d1e82610cf3565b9050919050565b610d2e81610d13565b82525050565b6000602082019050610d496000830184610d25565b92915050565b6000610d5a82610cf3565b9050919050565b610d6a81610d4f565b8114610d7557600080fd5b50565b600081359050610d8781610d61565b92915050565b600060208284031215610da357610da2610c95565b5b6000610db184828501610d78565b91505092915050565b600082825260208201905092915050565b7f4f6e6c79205363686f6f6c2063616e20737461727420766f74696e6700000000600082015250565b6000610e01601c83610dba565b9150610e0c82610dcb565b602082019050919050565b60006020820190508181036000830152610e3081610df4565b9050919050565b7f446561646c696e6520686173206e6f7420706173736564207965742121000000600082015250565b6000610e6d601d83610dba565b9150610e7882610e37565b602082019050919050565b60006020820190508181036000830152610e9c81610e60565b9050919050565b7f4e487b7100000000000000000000000000000000000000000000000000000000600052601160045260246000fd5b6000610edd82610c61565b9150610ee883610c61565b9250828201905080821115610f0057610eff610ea3565b5b92915050565b7f46756e6420697320616c726561647920636c61696d2121000000000000000000600082015250565b6000610f3c601783610dba565b9150610f4782610f06565b602082019050919050565b60006020820190508181036000830152610f6b81610f2f565b9050919050565b7f4f6e6c79205363686f6f6c2063616e20636c61696d207468652066756e64732160008201527f2100000000000000000000000000000000000000000000000000000000000000602082015250565b6000610fce602183610dba565b9150610fd982610f72565b604082019050919050565b60006020820190508181036000830152610ffd81610fc1565b9050919050565b7f43726f776466756e64696e67206e6f74206f7665722079657421210000000000600082015250565b600061103a601b83610dba565b915061104582611004565b602082019050919050565b600060208201905081810360008301526110698161102d565b9050919050565b7f4e487b7100000000000000000000000000000000000000000000000000000000600052601260045260246000fd5b60006110aa82610c61565b91506110b583610c61565b9250826110c5576110c4611070565b5b828204905092915050565b60006110db82610c61565b91506110e683610c61565b92508282039050818111156110fe576110fd610ea3565b5b92915050565b600061110f82610c61565b91507fffffffffffffffffffffffffffffffffffffffffffffffffffffffffffffffff820361114157611140610ea3565b5b600182019050919050565b7f566f74696e672074696d6520686173206e6f7420796574207061737365642121600082015250565b6000611182602083610dba565b915061118d8261114c565b602082019050919050565b600060208201905081810360008301526111b181611175565b9050919050565b7f4d616a6f7269747920646f6573206e6f7420737570706f727400000000000000600082015250565b60006111ee601983610dba565b91506111f9826111b8565b602082019050919050565b6000602082019050818103600083015261121d816111e1565b9050919050565b7f566f74696e6720686173206e6f74207374617274656420796574212100000000600082015250565b600061125a601c83610dba565b915061126582611224565b602082019050919050565b600060208201905081810360008301526112898161124d565b9050919050565b7f566f74696e672074696d65206861732070617373656421210000000000000000600082015250565b60006112c6601883610dba565b91506112d182611290565b602082019050919050565b600060208201905081810360008301526112f5816112b9565b9050919050565b7f596f7520617265206e6f7420616c6c6f77656420746f2070617274696369706160008201527f746520617320796f752068617665206e6f7420636f7472696275746564212100602082015250565b6000611358603f83610dba565b9150611363826112fc565b604082019050919050565b600060208201905081810360008301526113878161134b565b9050919050565b7f596f75206861766520616c726561647920766f74656421210000000000000000600082015250565b60006113c4601883610dba565b91506113cf8261138e565b602082019050919050565b600060208201905081810360008301526113f3816113b7565b9050919050565b7f446561646c696e65206861732070617373656420212100000000000000000000600082015250565b6000611430601683610dba565b915061143b826113fa565b602082019050919050565b6000602082019050818103600083015261145f81611423565b9050919050565b7f5363686f6f6c2063616e6e6f7420706172746963697061746520696e2066756e60008201527f642072616973696e672121000000000000000000000000000000000000000000602082015250565b60006114c2602b83610dba565b91506114cd82611466565b604082019050919050565b600060208201905081810360008301526114f1816114b5565b9050919050565b7f4d696e696d756d20636f6e747269627574696f6e206973203100000000000000600082015250565b600061152e601983610dba565b9150611539826114f8565b602082019050919050565b6000602082019050818103600083015261155d81611521565b905091905056fea2646970667358221220e2dd561a2be4f482d9b1de3de5e85be476abcb16aaa45c0988900c9fe2f7bb2064736f6c63430008130033",
  "immutableReferences": {},
  "source": "// SPDX-License-Identifier: GPL-3.0\r\n\r\npragma solidity ^0.8.0;\r\n\r\ncontract FundRaising{\r\n\r\n    address payable public owner; \r\n    uint public totalFundReq;\r\n    uint public totalFundRaised;\r\n    uint public totalDonor; // total number of donors\r\n    uint public totalVote; // total number of vote given by public\r\n    uint public votingEndTime;\r\n    uint remainingFund;\r\n    uint public endTime; // end time of contract after which no funds are deposited\r\n    uint totalAsk=1; // means if schoool wants 100$ we will give them 10$ before-hand and the remaining 90$(only if the school gets >=51% of votiing by public) after the school gives their documents\r\n    bool fundClamed; // if the school claimed their funds, but they are aattempting for the funds again we will throw error\r\n    bool public votingStatus; // to check if voting is started\r\n\r\n    mapping(address=>uint) public donors;\r\n    mapping(address=>bool) public voted;\r\n\r\n    constructor(uint _totalFundReq, uint _endTime){\r\n        owner = payable(msg.sender);\r\n        endTime = block.timestamp + _endTime;\r\n        totalFundReq = _totalFundReq;\r\n    }\r\n \r\n    function sendFund() external payable {     // external means it cants be accessed within the smart-contracts and can only be accessed by outside\r\n        require(block.timestamp < endTime, \"Deadline has passed !!\");\r\n        require(msg.sender != owner, \"School cannot participate in fund raising!!\");\r\n        require(msg.value > 0, \"Minimum contribution is 1\");\r\n\r\n        // check for new contributor\r\n        if(donors[msg.sender] == 0){\r\n            totalDonor++;\r\n        }\r\n        donors[msg.sender] = donors[msg.sender] + msg.value;\r\n        totalFundRaised = totalFundRaised + msg.value;\r\n    }\r\n\r\n    function getContractBalance() external view returns(uint) {   // gives the current funds in contract\r\n        return address(this).balance;\r\n    }\r\n\r\n    function startVoting(uint _votingEndTime) external {\r\n        require(msg.sender == owner, \"Only School can start voting\");\r\n        require(block.timestamp > endTime, \"Deadline has not passed yet!!\");  // if fund raising is not over public cannot start voting\r\n        votingEndTime = block.timestamp + _votingEndTime;\r\n        votingStatus = true;\r\n    }\r\n\r\n    function putVote() external {\r\n        require(votingStatus == true, \"Voting has not started yet!!\");\r\n        require(block.timestamp < votingEndTime,\"Voting time has passed!!\");\r\n        require(donors[msg.sender] != 0, \"You are not allowed to participate as you have not cotributed!!\");\r\n        require(voted[msg.sender] == false, \"You have already voted!!\");\r\n        totalVote++;\r\n        voted[msg.sender] = true;\r\n    }\r\n\r\n    function claimFund() public{    // school can claim funds through this \r\n        require(fundClamed == false, \"Fund is already claim!!\");\r\n        require(msg.sender == owner, \"Only School can claim the funds!!\");\r\n        require(block.timestamp > endTime,\"Crowdfunding not over yet!!\");\r\n\r\n        if(totalAsk == 1){\r\n            uint transferAmt = totalFundRaised / 10;  //sending 10% of total fund raised; \r\n            remainingFund = totalFundRaised-transferAmt;\r\n            totalAsk++;\r\n            owner.transfer(transferAmt);\r\n        }else{\r\n            require(block.timestamp > votingEndTime,\"Voting time has not yet passed!!\");\r\n            require(totalVote > totalDonor/2, \"Majority does not support\" );\r\n            fundClamed = true;\r\n            uint transferAmt = remainingFund;\r\n            remainingFund =0;\r\n            owner.transfer(transferAmt);\r\n        }\r\n        \r\n    }\r\n\r\n\r\n}",
  "sourcePath": "A:\\Blockchain\\contracts\\FundRaising.sol",
  "compiler": {
    "name": "solc",
    "version": "0.8.19+commit.7dd6d404.Emscripten.clang"
  },
  "schemaVersion": "3.4.13",
  "updatedAt": "2023-10-24T12:49:58.154Z",
  "devdoc": {
    "kind": "dev",
    "methods": {},
    "version": 1
  },
  "userdoc": {
    "kind": "user",
    "methods": {},
    "version": 1
  }
}