{
  "contractName": "P2P",
  "abi": [
    {
      "anonymous": false,
      "inputs": [
        {
          "indexed": true,
          "internalType": "address",
          "name": "sender",
          "type": "address"
        },
        {
          "indexed": true,
          "internalType": "address",
          "name": "recipient",
          "type": "address"
        },
        {
          "indexed": false,
          "internalType": "uint256",
          "name": "amount",
          "type": "uint256"
        }
      ],
      "name": "Sent",
      "type": "event"
    },
    {
      "inputs": [
        {
          "internalType": "address",
          "name": "",
          "type": "address"
        }
      ],
      "name": "balances",
      "outputs": [
        {
          "internalType": "uint256",
          "name": "",
          "type": "uint256"
        }
      ],
      "stateMutability": "view",
      "type": "function",
      "constant": true
    },
    {
      "inputs": [
        {
          "internalType": "address payable",
          "name": "recipient",
          "type": "address"
        },
        {
          "internalType": "uint256",
          "name": "amount",
          "type": "uint256"
        }
      ],
      "name": "send",
      "outputs": [],
      "stateMutability": "nonpayable",
      "type": "function"
    },
    {
      "inputs": [
        {
          "internalType": "address",
          "name": "user",
          "type": "address"
        }
      ],
      "name": "getBalance",
      "outputs": [
        {
          "internalType": "uint256",
          "name": "",
          "type": "uint256"
        }
      ],
      "stateMutability": "view",
      "type": "function",
      "constant": true
    }
  ],
  "bytecode": "0x608060405234801561001057600080fd5b5061056e806100206000396000f3fe608060405234801561001057600080fd5b50600436106100415760003560e01c806327e235e314610046578063d0679d3414610076578063f8b2cb4f14610092575b600080fd5b610060600480360381019061005b9190610319565b6100c2565b60405161006d919061035f565b60405180910390f35b610090600480360381019061008b91906103e4565b6100da565b005b6100ac60048036038101906100a79190610319565b61026e565b6040516100b9919061035f565b60405180910390f35b60006020528060005260406000206000915090505481565b806000803373ffffffffffffffffffffffffffffffffffffffff1673ffffffffffffffffffffffffffffffffffffffff16815260200190815260200160002054101561015b576040517f08c379a000000000000000000000000000000000000000000000000000000000815260040161015290610481565b60405180910390fd5b806000803373ffffffffffffffffffffffffffffffffffffffff1673ffffffffffffffffffffffffffffffffffffffff16815260200190815260200160002060008282546101a991906104d0565b92505081905550806000808473ffffffffffffffffffffffffffffffffffffffff1673ffffffffffffffffffffffffffffffffffffffff16815260200190815260200160002060008282546101fe9190610504565b925050819055508173ffffffffffffffffffffffffffffffffffffffff163373ffffffffffffffffffffffffffffffffffffffff167f3990db2d31862302a685e8086b5755072a6e2b5b780af1ee81ece35ee3cd334583604051610262919061035f565b60405180910390a35050565b60008060008373ffffffffffffffffffffffffffffffffffffffff1673ffffffffffffffffffffffffffffffffffffffff168152602001908152602001600020549050919050565b600080fd5b600073ffffffffffffffffffffffffffffffffffffffff82169050919050565b60006102e6826102bb565b9050919050565b6102f6816102db565b811461030157600080fd5b50565b600081359050610313816102ed565b92915050565b60006020828403121561032f5761032e6102b6565b5b600061033d84828501610304565b91505092915050565b6000819050919050565b61035981610346565b82525050565b60006020820190506103746000830184610350565b92915050565b6000610385826102bb565b9050919050565b6103958161037a565b81146103a057600080fd5b50565b6000813590506103b28161038c565b92915050565b6103c181610346565b81146103cc57600080fd5b50565b6000813590506103de816103b8565b92915050565b600080604083850312156103fb576103fa6102b6565b5b6000610409858286016103a3565b925050602061041a858286016103cf565b9150509250929050565b600082825260208201905092915050565b7f496e73756666696369656e742062616c616e63652e0000000000000000000000600082015250565b600061046b601583610424565b915061047682610435565b602082019050919050565b6000602082019050818103600083015261049a8161045e565b9050919050565b7f4e487b7100000000000000000000000000000000000000000000000000000000600052601160045260246000fd5b60006104db82610346565b91506104e683610346565b92508282039050818111156104fe576104fd6104a1565b5b92915050565b600061050f82610346565b915061051a83610346565b9250828201905080821115610532576105316104a1565b5b9291505056fea2646970667358221220c94ddd6907acb28251e8409fb64295c7975f94b6f3b3ebd90cf215e8939c137864736f6c63430008130033",
  "immutableReferences": {},
  "source": "// SPDX-License-Identifier: MIT\r\npragma solidity ^0.8.0;\r\n\r\ncontract P2P {\r\n    mapping(address => uint256) public balances;\r\n\r\n    event Sent(address indexed sender, address indexed recipient, uint256 amount);\r\n\r\n    function send(address payable recipient, uint256 amount) public {\r\n        require(balances[msg.sender] >= amount, \"Insufficient balance.\");\r\n        balances[msg.sender] -= amount;\r\n        balances[recipient] += amount;\r\n        emit Sent(msg.sender, recipient, amount);\r\n    }\r\n\r\n    function getBalance(address user) public view returns (uint256) {\r\n        return balances[user];\r\n    }\r\n}\r\n",
  "sourcePath": "A:\\Blockchain\\contracts\\P2P.sol",
  "compiler": {
    "name": "solc",
    "version": "0.8.19+commit.7dd6d404.Emscripten.clang"
  },
  "schemaVersion": "3.4.13",
  "updatedAt": "2023-04-11T18:54:45.626Z",
  "networkType": "ethereum",
  "devdoc": {
    "kind": "dev",
    "methods": {},
    "version": 1
  },
  "userdoc": {
    "kind": "user",
    "methods": {},
    "version": 1
  }
}