{
  "contractName": "Payment",
  "abi": [
    {
      "anonymous": false,
      "inputs": [
        {
          "indexed": false,
          "internalType": "address",
          "name": "sender",
          "type": "address"
        },
        {
          "indexed": false,
          "internalType": "address",
          "name": "receiver",
          "type": "address"
        },
        {
          "indexed": false,
          "internalType": "uint256",
          "name": "amount",
          "type": "uint256"
        }
      ],
      "name": "PaymentSent",
      "type": "event"
    },
    {
      "inputs": [],
      "name": "receiver",
      "outputs": [
        {
          "internalType": "address payable",
          "name": "",
          "type": "address"
        }
      ],
      "stateMutability": "view",
      "type": "function"
    },
    {
      "inputs": [],
      "name": "sendPayment",
      "outputs": [],
      "stateMutability": "payable",
      "type": "function"
    }
  ],
  "bytecode": "0x608060405234801561001057600080fd5b506103d9806100206000396000f3fe6080604052600436106100295760003560e01c80636720ceb11461002e578063f7260d3e14610038575b600080fd5b610036610063565b005b34801561004457600080fd5b5061004d6101b0565b60405161005a9190610215565b60405180910390f35b600034116100a6576040517f08c379a000000000000000000000000000000000000000000000000000000000815260040161009d906102b3565b60405180910390fd5b336000806101000a81548173ffffffffffffffffffffffffffffffffffffffff021916908373ffffffffffffffffffffffffffffffffffffffff160217905550600034905060008054906101000a900473ffffffffffffffffffffffffffffffffffffffff1673ffffffffffffffffffffffffffffffffffffffff166108fc829081150290604051600060405180830381858888f19350505050158015610151573d6000803e3d6000fd5b507fd52bd61f7c422d441e024604f4517878fd3305d6acf0fe37baef23ed21af6bc93360008054906101000a900473ffffffffffffffffffffffffffffffffffffffff16836040516101a59392919061036c565b60405180910390a150565b60008054906101000a900473ffffffffffffffffffffffffffffffffffffffff1681565b600073ffffffffffffffffffffffffffffffffffffffff82169050919050565b60006101ff826101d4565b9050919050565b61020f816101f4565b82525050565b600060208201905061022a6000830184610206565b92915050565b600082825260208201905092915050565b7f416d6f756e742073686f756c642062652067726561746572207468616e207a6560008201527f726f000000000000000000000000000000000000000000000000000000000000602082015250565b600061029d602283610230565b91506102a882610241565b604082019050919050565b600060208201905081810360008301526102cc81610290565b9050919050565b60006102de826101d4565b9050919050565b6102ee816102d3565b82525050565b6000819050919050565b600061031961031461030f846101d4565b6102f4565b6101d4565b9050919050565b600061032b826102fe565b9050919050565b600061033d82610320565b9050919050565b61034d81610332565b82525050565b6000819050919050565b61036681610353565b82525050565b600060608201905061038160008301866102e5565b61038e6020830185610344565b61039b604083018461035d565b94935050505056fea2646970667358221220e45ffcb09ee4d368d86c3aec7456e66bc277e64912896fd2edeb4c6f6cffbde264736f6c63430008130033",
  "immutableReferences": {},
  "source": "// SPDX-License-Identifier: MIT\r\n\r\npragma solidity ^0.8.0;\r\n\r\ncontract Payment {\r\n    address payable public receiver;\r\n\r\n    event PaymentSent(address sender, address receiver, uint amount);\r\n\r\n    function sendPayment() public payable {\r\n        require(msg.value > 0, \"Amount should be greater than zero\");\r\n        receiver = payable(msg.sender);\r\n        uint amount = msg.value;\r\n        receiver.transfer(amount);\r\n        emit PaymentSent(msg.sender, receiver, amount);\r\n    }\r\n}\r\n",
  "sourcePath": "A:\\Blockchain\\contracts\\Payment.sol",
  "compiler": {
    "name": "solc",
    "version": "0.8.19+commit.7dd6d404.Emscripten.clang"
  },
  "schemaVersion": "3.4.13",
  "updatedAt": "2023-10-24T12:49:58.216Z",
  "devdoc": {
    "kind": "dev",
    "methods": {},
    "version": 1
  },
  "userdoc": {
    "kind": "user",
    "methods": {},
    "version": 1
  }
}